{"abi":[{"type":"constructor","inputs":[],"stateMutability":"nonpayable"},{"type":"function","name":"_deployed","inputs":[{"name":"","type":"address","internalType":"address"}],"outputs":[{"name":"","type":"bool","internalType":"bool"}],"stateMutability":"view"},{"type":"function","name":"changeOwner","inputs":[{"name":"newOwner","type":"address","internalType":"address"}],"outputs":[],"stateMutability":"nonpayable"},{"type":"function","name":"findCreate2Address","inputs":[{"name":"salt","type":"bytes32","internalType":"bytes32"},{"name":"initCode","type":"bytes","internalType":"bytes"}],"outputs":[{"name":"deploymentAddress","type":"address","internalType":"address"}],"stateMutability":"view"},{"type":"function","name":"findCreate2AddressViaHash","inputs":[{"name":"salt","type":"bytes32","internalType":"bytes32"},{"name":"initCodeHash","type":"bytes32","internalType":"bytes32"}],"outputs":[{"name":"deploymentAddress","type":"address","internalType":"address"}],"stateMutability":"view"},{"type":"function","name":"hasBeenDeployed","inputs":[{"name":"deploymentAddress","type":"address","internalType":"address"}],"outputs":[{"name":"","type":"bool","internalType":"bool"}],"stateMutability":"view"},{"type":"function","name":"owner","inputs":[],"outputs":[{"name":"","type":"address","internalType":"address"}],"stateMutability":"view"},{"type":"function","name":"safeCreate2","inputs":[{"name":"salt","type":"bytes32","internalType":"bytes32"},{"name":"initializationCode","type":"bytes","internalType":"bytes"}],"outputs":[{"name":"deploymentAddress","type":"address","internalType":"address"}],"stateMutability":"payable"},{"type":"event","name":"ContractDeployed","inputs":[{"name":"deploymentAddress","type":"address","indexed":true,"internalType":"address"}],"anonymous":false},{"type":"event","name":"OwnershipTransferred","inputs":[{"name":"previousOwner","type":"address","indexed":true,"internalType":"address"},{"name":"newOwner","type":"address","indexed":true,"internalType":"address"}],"anonymous":false}],"bytecode":{"object":"0x6080604052348015600e575f5ffd5b503360015f6101000a81548173ffffffffffffffffffffffffffffffffffffffff021916908373ffffffffffffffffffffffffffffffffffffffff16021790555060015f9054906101000a900473ffffffffffffffffffffffffffffffffffffffff1673ffffffffffffffffffffffffffffffffffffffff165f73ffffffffffffffffffffffffffffffffffffffff167f8be0079c531659141344cd1fd0a4f28419497f9722a3daafe3b4186f6b6457e060405160405180910390a3610d6c806100d75f395ff3fe60806040526004361061006f575f3560e01c806385cf97ab1161004d57806385cf97ab1461011b5780638da5cb5b14610157578063a49a7c9014610181578063a6f9dae1146101bd5761006f565b806308508b8f146100735780633b67d809146100af57806364e03087146100eb575b5f5ffd5b34801561007e575f5ffd5b506100996004803603810190610094919061087d565b6101e5565b6040516100a691906108c2565b60405180910390f35b3480156100ba575f5ffd5b506100d560048036038101906100d0919061087d565b610236565b6040516100e291906108c2565b60405180910390f35b6101056004803603810190610100919061096f565b610252565b60405161011291906109db565b60405180910390f35b348015610126575f5ffd5b50610141600480360381019061013c919061096f565b610506565b60405161014e91906109db565b60405180910390f35b348015610162575f5ffd5b5061016b6105ab565b60405161017891906109db565b60405180910390f35b34801561018c575f5ffd5b506101a760048036038101906101a291906109f4565b6105d3565b6040516101b491906109db565b60405180910390f35b3480156101c8575f5ffd5b506101e360048036038101906101de919061087d565b610660565b005b5f5f5f8373ffffffffffffffffffffffffffffffffffffffff1673ffffffffffffffffffffffffffffffffffffffff1681526020019081526020015f205f9054906101000a900460ff169050919050565b5f602052805f5260405f205f915054906101000a900460ff1681565b5f60015f9054906101000a900473ffffffffffffffffffffffffffffffffffffffff1673ffffffffffffffffffffffffffffffffffffffff163373ffffffffffffffffffffffffffffffffffffffff16146102e2576040517f08c379a00000000000000000000000000000000000000000000000000000000081526004016102d990610a8c565b60405180910390fd5b5f83838080601f0160208091040260200160405190810160405280939291908181526020018383808284375f81840152601f19601f8201169050808301925050505050505090505f3086838051906020012060405160200161034693929190610b63565b604051602081830303815290604052805190602001205f1c90505f5f8273ffffffffffffffffffffffffffffffffffffffff1673ffffffffffffffffffffffffffffffffffffffff1681526020019081526020015f205f9054906101000a900460ff16156103e9576040517f08c379a00000000000000000000000000000000000000000000000000000000081526004016103e090610bf4565b60405180910390fd5b81602001825187818334f5945050508073ffffffffffffffffffffffffffffffffffffffff168373ffffffffffffffffffffffffffffffffffffffff1614610466576040517f08c379a000000000000000000000000000000000000000000000000000000000815260040161045d90610c5c565b60405180910390fd5b60015f5f8573ffffffffffffffffffffffffffffffffffffffff1673ffffffffffffffffffffffffffffffffffffffff1681526020019081526020015f205f6101000a81548160ff0219169083151502179055508273ffffffffffffffffffffffffffffffffffffffff167f8ffcdc15a283d706d38281f500270d8b5a656918f555de0913d7455e3e6bc1bf60405160405180910390a250509392505050565b5f30848484604051610519929190610cb6565b604051809103902060405160200161053393929190610b63565b604051602081830303815290604052805190602001205f1c90505f5f8273ffffffffffffffffffffffffffffffffffffffff1673ffffffffffffffffffffffffffffffffffffffff1681526020019081526020015f205f9054906101000a900460ff16156105a3575f90506105a4565b5b9392505050565b5f60015f9054906101000a900473ffffffffffffffffffffffffffffffffffffffff16905090565b5f3083836040516020016105e993929190610b63565b604051602081830303815290604052805190602001205f1c90505f5f8273ffffffffffffffffffffffffffffffffffffffff1673ffffffffffffffffffffffffffffffffffffffff1681526020019081526020015f205f9054906101000a900460ff1615610659575f905061065a565b5b92915050565b60015f9054906101000a900473ffffffffffffffffffffffffffffffffffffffff1673ffffffffffffffffffffffffffffffffffffffff163373ffffffffffffffffffffffffffffffffffffffff16146106ef576040517f08c379a00000000000000000000000000000000000000000000000000000000081526004016106e690610a8c565b60405180910390fd5b5f73ffffffffffffffffffffffffffffffffffffffff168173ffffffffffffffffffffffffffffffffffffffff160361075d576040517f08c379a000000000000000000000000000000000000000000000000000000000815260040161075490610d18565b60405180910390fd5b8073ffffffffffffffffffffffffffffffffffffffff1660015f9054906101000a900473ffffffffffffffffffffffffffffffffffffffff1673ffffffffffffffffffffffffffffffffffffffff167f8be0079c531659141344cd1fd0a4f28419497f9722a3daafe3b4186f6b6457e060405160405180910390a38060015f6101000a81548173ffffffffffffffffffffffffffffffffffffffff021916908373ffffffffffffffffffffffffffffffffffffffff16021790555050565b5f5ffd5b5f5ffd5b5f73ffffffffffffffffffffffffffffffffffffffff82169050919050565b5f61084c82610823565b9050919050565b61085c81610842565b8114610866575f5ffd5b50565b5f8135905061087781610853565b92915050565b5f602082840312156108925761089161081b565b5b5f61089f84828501610869565b91505092915050565b5f8115159050919050565b6108bc816108a8565b82525050565b5f6020820190506108d55f8301846108b3565b92915050565b5f819050919050565b6108ed816108db565b81146108f7575f5ffd5b50565b5f81359050610908816108e4565b92915050565b5f5ffd5b5f5ffd5b5f5ffd5b5f5f83601f84011261092f5761092e61090e565b5b8235905067ffffffffffffffff81111561094c5761094b610912565b5b60208301915083600182028301111561096857610967610916565b5b9250929050565b5f5f5f604084860312156109865761098561081b565b5b5f610993868287016108fa565b935050602084013567ffffffffffffffff8111156109b4576109b361081f565b5b6109c08682870161091a565b92509250509250925092565b6109d581610842565b82525050565b5f6020820190506109ee5f8301846109cc565b92915050565b5f5f60408385031215610a0a57610a0961081b565b5b5f610a17858286016108fa565b9250506020610a28858286016108fa565b9150509250929050565b5f82825260208201905092915050565b7f4e6f7420636f6e7472616374206f776e657200000000000000000000000000005f82015250565b5f610a76601283610a32565b9150610a8182610a42565b602082019050919050565b5f6020820190508181035f830152610aa381610a6a565b9050919050565b5f81905092915050565b7fff000000000000000000000000000000000000000000000000000000000000005f82015250565b5f610ae8600183610aaa565b9150610af382610ab4565b600182019050919050565b5f8160601b9050919050565b5f610b1482610afe565b9050919050565b5f610b2582610b0a565b9050919050565b610b3d610b3882610842565b610b1b565b82525050565b5f819050919050565b610b5d610b58826108db565b610b43565b82525050565b5f610b6d82610adc565b9150610b798286610b2c565b601482019150610b898285610b4c565b602082019150610b998284610b4c565b602082019150819050949350505050565b7f416c7265616479206465706c6f796564000000000000000000000000000000005f82015250565b5f610bde601083610a32565b9150610be982610baa565b602082019050919050565b5f6020820190508181035f830152610c0b81610bd2565b9050919050565b7f4465706c6f796d656e74206661696c65640000000000000000000000000000005f82015250565b5f610c46601183610a32565b9150610c5182610c12565b602082019050919050565b5f6020820190508181035f830152610c7381610c3a565b9050919050565b5f81905092915050565b828183375f83830152505050565b5f610c9d8385610c7a565b9350610caa838584610c84565b82840190509392505050565b5f610cc2828486610c92565b91508190509392505050565b7f4e6577206f776e65722063616e6e6f74206265207a65726f00000000000000005f82015250565b5f610d02601883610a32565b9150610d0d82610cce565b602082019050919050565b5f6020820190508181035f830152610d2f81610cf6565b905091905056fea2646970667358221220cc6005d459a20813d6abf26072cd7a9f17575a2fd3ea3e1268e89eb52221b5da64736f6c634300081c0033","linkReferences":{}},"methodIdentifiers":{"_deployed(address)":"3b67d809","changeOwner(address)":"a6f9dae1","findCreate2Address(bytes32,bytes)":"85cf97ab","findCreate2AddressViaHash(bytes32,bytes32)":"a49a7c90","hasBeenDeployed(address)":"08508b8f","owner()":"8da5cb5b","safeCreate2(bytes32,bytes)":"64e03087"},"id":16}